:107E800011248FEF98E09EBF8DBF24B614BE80E012
:107E900070D021FEDFC08FE06CD0699A54D0C82F1B
:107EA0008D7FE9F461D0D82FA0E0B1E04CD08D9364
:107EB000DA13FCCF64D0C1110EC0A0E0B1E0F99993
:107EC000FECFF2BDE1BD8D9180BDFA9AF99A31964F
:107ED000DA13F5CF23C0A0E0B1E05BD01FC0C33000
:107EE00041F442D0C82F4BD085911BD0C150E1F74F
:107EF00015C0C13071F438D0C82F41D0F999FECFE8
:107F0000F2BDE1BDF89A80B50CD03196C150B1F701
:107F100005C0C13511F488E02CD031D088E901D0FA
:107F2000BDCF2AE08095089410F4719802C0719A30
:107F3000000004D086952A95B9F7089500D096E000
:107F40009A95F1F7089529E06099FECFF8DFF6DF02
:107F50008894609908942A9519F087950000F7CFC6
:107F600008F010C0A8950895EEDFE82FECDFF82F99
:107F7000EACF98E190936000809360000895E3DF7A
:107F8000803219F088E0F5DFFFCF80E2CACFFB0135
:107F9000DC0160E86A0F9F01E0388EE7F807C8F45B
:107FA00083E012D0309629F48FE38D938FEC8C937D
:107FB000119781E00D901D9007D03296A613FACF4D
:107FC000F90185E001D081E187BFE89507B600FCA3
:067FD000FDCF112408950D
:067FFA000315BFCF663F36
:0400000300007E80FB
:00000001FF
