:100F000011248FEF92E09EBF8DBF24B614BE80E007
:100F10004AD021FE8EC08EE046D0E0ECF0E0B8E191
:100F2000B483B2E0B083B8E1B1832BD0823069F4EE
:100F300035D0382FA0E0B1E024D08D933A13FCCF08
:100F400038D0A0E0B1E03FD012C0833041F426D0C9
:100F5000C82F2FD085910ED0C150E1F708C0823044
:100F600008F42AC0813511F488E01DD022D088E42D
:100F700001D0DBCF9091C00095FFFCCF8093C600DD
:100F80000895002CCC2C8091C00087FFFCCF84FDFD
:100F900013C0A8958091C600112C0895F2DFE82FA8
:100FA000F0DFF82FEECF98E190936000809360001F
:100FB0000895E7DF803219F088E0F5DFFFCF80E2A7
:100FC000D9CFFB01DC0160E46A0F9F01FF3090F490
:100FD00083E00BD081E00D901D9007D03296A613D0
:100FE000FACFF90185E001D081E187BFE89507B626
:080FF00000FCFDCF112408955F
:060FFA000419E2CF243FC0
:0400000300000F00EA
:00000001FF
