:101E8000112424B614BE80E075D021FED2C08EE0AD
:101E900071D0519A56D0C82F8D7FF1F466D0D82FCB
:101EA000A0E0B1E04ED08D93DA13FCCF69D0C11120
:101EB0000FC0A0E0B1E0F999FECF1FBAF2BDE1BDBD
:101EC0008D9180BDFA9AF99A3196DA13F4CF23C036
:101ED000A0E0B1E05FD01FC0C33041F446D0C82FAE
:101EE0004FD085911BD0C150E1F715C0C13071F4BE
:101EF0003CD0C82F45D0F999FECFF2BDE1BDF89A8C
:101F000080B50CD03196C150B1F705C0C13511F480
:101F100088E030D035D081E501D0BCCF2AE0809573
:101F2000089410F4599802C0599A000004D086957C
:101F30002A95B9F7089500D090E29A95F1F700C07C
:101F40000895002CCC2C29E04899FECFF5DFF3DF73
:101F50008894489908942A9519F087950000F7CF3E
:101F600008F011C0A895112C0895EBDFE82FE9DFE8
:101F7000F82FE7CF98E19093600080936000089578
:101F8000E0DF803219F088E0F5DFFFCF80E2C6CFD6
:101F9000FB01DC0160E46A0F9F01E0388EE1F80785
:101FA000C8F483E012D0309629F48FE38D938FEC40
:101FB0008C93119781E00D901D9007D03296A61357
:101FC000FACFF90185E001D081E187BFE89507B636
:081FD00000FCFDCF112408956F
:061FFA000619C9CF663F85
:0400000300001E805B
:00000001FF
