:103E800011248FEF94E09EBF8DBF24B614BE80E056
:103E90007FD021FEF3C08EE07BD0539A63D0C82F31
:103EA000823559F47BD0E0E8FEE3E058F109A895AB
:103EB00083E099D03097C9F73EC08D7FE9F463D095
:103EC000D82FA0E0B1E04ED08D93DA13FCCF66D0AE
:103ED000C1110EC0A0E0B1E0F999FECFF2BDE1BD85
:103EE0008D9180BDFA9AF99A3196DA13F5CF23C0F5
:103EF000A0E0B1E05DD01FC0C33041F444D0C82F72
:103F00004DD085911BD0C150E1F715C0C13071F47F
:103F10003AD0C82F43D0F999FECFF2BDE1BDF89A4F
:103F200080B50CD03196C150B1F705C0C13511F440
:103F300088E02ED033D084EB01D0B0CF2AE080953A
:103F4000089410F45B9802C05B9A000004D0869538
:103F50002A95B9F70895000000C000D097E29A951D
:103F6000F1F7089529E04C99FECFF8DFF4DF88944B
:103F70004C9908942A9519F087950000F7CF08F01E
:103F800010C0A8950895EEDFE82FECDFF82FEACFF8
:103F900098E190936000809360000895E3DF8032A1
:103FA00019F088E0F5DFFFCF80EAC8CFFB01DC0124
:103FB00060E86A0F9F01E0388EE3F807C8F483E0F9
:103FC00012D0309629F48FE38D938FEC8C93119758
:103FD00081E00D901D9007D03296A613FACFF9011B
:103FE00085E001D081E187BFE89507B600FCFDCFF1
:043FF00011240895FB
:063FFA00031FCECF673F5C
:0400000300003E803B
:00000001FF
