:107E800011248FEF98E09EBF8DBF24B614BE80E012
:107E900054D021FEDFC08EE050D0699A35D08230B8
:107EA00069F446D0A0E0B1E02FD08D93A038E1F77F
:107EB000A0E049D052D083E714D0F0CF833041F412
:107EC00037D0C82F40D085910CD0C150E1F7F3CF07
:107ED000813521F488E031D036D0EDCF8230E0F723
:107EE00035C02AE08095089410F4719802C0719A08
:107EF000000004D086952A95B9F7089500D094E142
:107F00009A95F1F700C00895002CCC2C29E06099D7
:107F1000FECFF5DFF3DF8894609908942A9519F075
:107F200087950000F7CF08F011C0A895112C08958F
:107F3000EBDFE82FE9DFF82FE7CF98E190936000BF
:107F4000809360000895E0DF803219F088E0F5DF6B
:107F5000FFCF80E2C6CFFB01DC01E07870E87A0F4A
:107F60009F01E0388EE7F80778F5309629F48FE323
:107F70008D938FEC8C93119790E045915D91451313
:107F800091605F3F09F09260452345139460A71309
:107F9000F4CFF901A058B10990FF16C092FF04C0B8
:107FA00083E00DD091FF0AC081E00D901D9007D0B5
:107FB0003296A713FACFF90185E001D081E187BF9E
:0C7FC000E89517B610FCFDCF11240895C1
:067FFA000315ACCF264088
:0400000300007E80FB
:00000001FF
