:101EC00011248FEF92E09EBF8DBF24B614BE80E038
:101ED00055D021FEB4C08EE051D0539A37D0823015
:101EE00069F447D0382FA0E0B1E030D08D933A1399
:101EF000FCCF4AD0A0E0B1E051D012C0833041F411
:101F000038D0C82F41D085910ED0C150E1F708C01C
:101F1000823008F43CC0813511F488E02FD034D0F1
:101F20008BEA01D0DBCF2AE08095089410F45B980F
:101F300002C05B9A000004D086952A95B9F70895EF
:101F400000D092E19A95F1F700C00895002CCC2CB6
:101F500029E04C99FECFF5DFF3DF88944C99089483
:101F60002A9511F08795F8CF08F011C0A895112C8B
:101F70000895ECDFE82FEADFF82FE8CF98E190939F
:101F80006000809360000895E1DF803219F088E0FE
:101F9000F5DFFFCF80E2C7CFFB01DC0160E46A0F11
:101FA0009F01E03C8EE1F807C8F483E012D0309640
:101FB00029F48FE58D938FEC8C93119781E00D9030
:101FC0001D9007D03296A613FACFF90185E001D013
:101FD00081E187BFE89507B600FCFDCF1124089585
:061FFA00051FC4CF263FC5
:0400000300001EC01B
:00000001FF
