:100E8000112424B614BE80E085D021FED2C08FE0AC
:100E900081D0519A66D0C82F823559F481D0E0E8CC
:100EA000FEE0E054F109A89583E09FD03097C9F7A0
:100EB00043C08D7F01F569D0D82FA0E0B1E051D0BB
:100EC0008D93DA13FCCF6CD0C11111C0A0E0B1E05A
:100ED000F999FECF1FBA2F2F332722BDE1BD8D9187
:100EE00080BDFA9AF99A3196DA13F2CF25C0A0E0C4
:100EF000B1E060D021C0C33041F447D0C82F50D0FA
:100F000085911DD0C150E1F717C0C13081F43DD0AB
:100F1000C82F46D0F999FECF2F2F332722BDE1BD30
:100F2000F89A80B50CD03196C150A1F705C0C135F3
:100F300011F488E02FD034D086E401D0ABCF2AE082
:100F40008095089410F4599802C0599A000004D072
:100F500086952A95B9F7089500D09FE09A95F1F704
:100F60000895002CCC2C29E04899FECFF6DFF4DF61
:100F70008894489908942A9519F087950000F7CF2E
:100F800008F011C0A895112C0895EBDFE82FE9DFD8
:100F9000F82FE7CF98E19093600080936000089568
:100FA000E0DF803219F088E0F5DFFFCF80EAC7CFBD
:100FB000FB01DC0160E46A0F9F01E0388EE0F80776
:100FC000C8F483E012D0309629F48FE38D938FEC30
:100FD0008C93119781E00D901D9007D03296A61347
:100FE000FACFF90185E001D081E187BFE89507B626
:080FF00000FCFDCF112408955F
:060FFA000619D9CF673F84
:0400000300000E806B
:00000001FF
