:101E800011248FEF92E09EBF8DBF24B614BE80E078
:101E90007DD021FEC5C08FE079D0219A5ED0C82FB9
:101EA000823561F479D0E0E0FEE1A89583E097D037
:101EB000E058F109D0F786EC3CD0F0CF8D7FD9F413
:101EC00060D0D82FA0E0B1E048D08D93DA13FCCFDA
:101ED000A0E0B1E061D0C1110CC0F2BDE1BD8D91B7
:101EE00080BDFA9AF99A3196F999FECFD150A9F7A7
:101EF000E2CF5CD0E0CFC33041F443D0C82F4CD008
:101F0000859117D0C150E1F7D6CFC13061F439D0F7
:101F1000C82F42D0F2BDE1BDF89A80B50AD0319603
:101F2000C150C1F7C8CFC13511F488E02FD034D0EB
:101F3000C2CF2AE08095089410F4299802C0299A0B
:101F4000000004D086952A95B9F70895000000D0C6
:101F500096E19A95F1F700C00895002CCC2C29E069
:101F60001899FECFF5DFF2DF8894189908942A9526
:101F700019F087950000F7CF08F011C0A895112C33
:101F80000895EBDFE82FE9DFF82FE7CF98E1909392
:101F90006000809360000895E0DF803219F088E0EF
:101FA000F5DFFFCF80EAC5CFFB01DC01E07870E808
:101FB0007A0FE0388EE1F807B8F4309629F48FE311
:101FC0008D938FEC8C93119783E009D081E00D9075
:101FD0001D9005D03296A713FACF329785E087BFC0
:0C1FE000E89517B610FCFDCF1124089501
:061FFA000310D5CF4740A3
:0400000300001E805B
:00000001FF
