:10FE0000112424B614BE80E060D021FE2FC18EE004
:10FE10005CD0519A42D0823551F45ED0E0E0FEEFE2
:10FE2000FA95A89583E07AD03097D1F721C0823037
:10FE300069F446D0382FA0E0B1E02FD08D933A136B
:10FE4000FCCF4AD0A0E0B1E051D012C0833041F4E1
:10FE500037D0C82F41D085910ED0C150E1F708C0EE
:10FE6000823008F43CC0813511F488E02ED034D0C3
:10FE700081E801D0CFCF2AE08095089410F45998FA
:10FE800002C0599A000004D086952A95B9F70895C2
:10FE900000D092E09A95F1F70895289A209A29E0E7
:10FEA0004899FECFF6DFF4DF8894489908942A95A4
:10FEB00011F08795F8CF08F012C0A89528980895FA
:10FEC000ECDFE82FEADFF82FE8CF98E1A8959093D0
:10FED0006000809360000895E0DF803219F088E0D0
:10FEE000F4DFFFCF80EAC7CFFB01DC016A2F9F015F
:10FEF000FE3FC8F483E012D0309629F48FEF8D9343
:10FF00008EEC8C93119781E00D901D9007D0329666
:10FF1000A613FACFF90185E001D081E187BFE8950A
:0AFF200007B600FCFDCF1124089580
:06FFFA00021B75CF273F3A
:040000030000FE00FB
:00000001FF
